{
  "_format": "hh-sol-artifact-1",
  "contractName": "ADARegistry",
  "sourceName": "contracts/ADARegistry.sol",
  "abi": [
    {
      "inputs": [],
      "stateMutability": "nonpayable",
      "type": "constructor"
    },
    {
      "anonymous": false,
      "inputs": [
        {
          "indexed": true,
          "internalType": "bytes32",
          "name": "jobId",
          "type": "bytes32"
        },
        {
          "indexed": true,
          "internalType": "address",
          "name": "jobSeeker",
          "type": "address"
        },
        {
          "indexed": false,
          "internalType": "uint256",
          "name": "matchScore",
          "type": "uint256"
        }
      ],
      "name": "JobMatched",
      "type": "event"
    },
    {
      "anonymous": false,
      "inputs": [
        {
          "indexed": true,
          "internalType": "bytes32",
          "name": "jobId",
          "type": "bytes32"
        },
        {
          "indexed": true,
          "internalType": "address",
          "name": "hrAddress",
          "type": "address"
        },
        {
          "indexed": false,
          "internalType": "string",
          "name": "title",
          "type": "string"
        }
      ],
      "name": "JobPosted",
      "type": "event"
    },
    {
      "anonymous": false,
      "inputs": [
        {
          "indexed": false,
          "internalType": "uint256",
          "name": "users",
          "type": "uint256"
        },
        {
          "indexed": false,
          "internalType": "uint256",
          "name": "jobs",
          "type": "uint256"
        },
        {
          "indexed": false,
          "internalType": "uint256",
          "name": "matches",
          "type": "uint256"
        }
      ],
      "name": "PlatformStatsUpdated",
      "type": "event"
    },
    {
      "anonymous": false,
      "inputs": [
        {
          "indexed": true,
          "internalType": "address",
          "name": "userAddress",
          "type": "address"
        },
        {
          "indexed": false,
          "internalType": "string",
          "name": "email",
          "type": "string"
        },
        {
          "indexed": false,
          "internalType": "uint8",
          "name": "userType",
          "type": "uint8"
        }
      ],
      "name": "UserRegistered",
      "type": "event"
    },
    {
      "inputs": [],
      "name": "PLATFORM_NAME",
      "outputs": [
        {
          "internalType": "string",
          "name": "",
          "type": "string"
        }
      ],
      "stateMutability": "view",
      "type": "function"
    },
    {
      "inputs": [],
      "name": "VERSION",
      "outputs": [
        {
          "internalType": "string",
          "name": "",
          "type": "string"
        }
      ],
      "stateMutability": "view",
      "type": "function"
    },
    {
      "inputs": [],
      "name": "deactivateUser",
      "outputs": [],
      "stateMutability": "nonpayable",
      "type": "function"
    },
    {
      "inputs": [],
      "name": "emergencyPause",
      "outputs": [],
      "stateMutability": "nonpayable",
      "type": "function"
    },
    {
      "inputs": [],
      "name": "getContractInfo",
      "outputs": [
        {
          "internalType": "string",
          "name": "",
          "type": "string"
        },
        {
          "internalType": "string",
          "name": "",
          "type": "string"
        }
      ],
      "stateMutability": "pure",
      "type": "function"
    },
    {
      "inputs": [
        {
          "internalType": "bytes32",
          "name": "jobId",
          "type": "bytes32"
        }
      ],
      "name": "getJobPosting",
      "outputs": [
        {
          "components": [
            {
              "internalType": "address",
              "name": "hrAddress",
              "type": "address"
            },
            {
              "internalType": "string",
              "name": "title",
              "type": "string"
            },
            {
              "internalType": "string",
              "name": "company",
              "type": "string"
            },
            {
              "internalType": "bool",
              "name": "isActive",
              "type": "bool"
            },
            {
              "internalType": "uint256",
              "name": "createdAt",
              "type": "uint256"
            },
            {
              "internalType": "string",
              "name": "metadataHash",
              "type": "string"
            },
            {
              "internalType": "uint8",
              "name": "accessibilityLevel",
              "type": "uint8"
            }
          ],
          "internalType": "struct ADARegistry.JobPosting",
          "name": "",
          "type": "tuple"
        }
      ],
      "stateMutability": "view",
      "type": "function"
    },
    {
      "inputs": [],
      "name": "getPlatformStats",
      "outputs": [
        {
          "internalType": "uint256",
          "name": "",
          "type": "uint256"
        },
        {
          "internalType": "uint256",
          "name": "",
          "type": "uint256"
        },
        {
          "internalType": "uint256",
          "name": "",
          "type": "uint256"
        }
      ],
      "stateMutability": "view",
      "type": "function"
    },
    {
      "inputs": [
        {
          "internalType": "address",
          "name": "userAddress",
          "type": "address"
        }
      ],
      "name": "getUserProfile",
      "outputs": [
        {
          "components": [
            {
              "internalType": "string",
              "name": "email",
              "type": "string"
            },
            {
              "internalType": "uint8",
              "name": "userType",
              "type": "uint8"
            },
            {
              "internalType": "bool",
              "name": "isActive",
              "type": "bool"
            },
            {
              "internalType": "uint256",
              "name": "createdAt",
              "type": "uint256"
            },
            {
              "internalType": "string",
              "name": "metadataHash",
              "type": "string"
            }
          ],
          "internalType": "struct ADARegistry.UserProfile",
          "name": "",
          "type": "tuple"
        }
      ],
      "stateMutability": "view",
      "type": "function"
    },
    {
      "inputs": [
        {
          "internalType": "bytes32",
          "name": "",
          "type": "bytes32"
        }
      ],
      "name": "jobPostings",
      "outputs": [
        {
          "internalType": "address",
          "name": "hrAddress",
          "type": "address"
        },
        {
          "internalType": "string",
          "name": "title",
          "type": "string"
        },
        {
          "internalType": "string",
          "name": "company",
          "type": "string"
        },
        {
          "internalType": "bool",
          "name": "isActive",
          "type": "bool"
        },
        {
          "internalType": "uint256",
          "name": "createdAt",
          "type": "uint256"
        },
        {
          "internalType": "string",
          "name": "metadataHash",
          "type": "string"
        },
        {
          "internalType": "uint8",
          "name": "accessibilityLevel",
          "type": "uint8"
        }
      ],
      "stateMutability": "view",
      "type": "function"
    },
    {
      "inputs": [],
      "name": "owner",
      "outputs": [
        {
          "internalType": "address",
          "name": "",
          "type": "address"
        }
      ],
      "stateMutability": "view",
      "type": "function"
    },
    {
      "inputs": [
        {
          "internalType": "string",
          "name": "title",
          "type": "string"
        },
        {
          "internalType": "string",
          "name": "company",
          "type": "string"
        },
        {
          "internalType": "string",
          "name": "metadataHash",
          "type": "string"
        },
        {
          "internalType": "uint8",
          "name": "accessibilityLevel",
          "type": "uint8"
        }
      ],
      "name": "postJob",
      "outputs": [
        {
          "internalType": "bytes32",
          "name": "",
          "type": "bytes32"
        }
      ],
      "stateMutability": "nonpayable",
      "type": "function"
    },
    {
      "inputs": [
        {
          "internalType": "bytes32",
          "name": "jobId",
          "type": "bytes32"
        },
        {
          "internalType": "uint256",
          "name": "matchScore",
          "type": "uint256"
        }
      ],
      "name": "recordJobMatch",
      "outputs": [],
      "stateMutability": "nonpayable",
      "type": "function"
    },
    {
      "inputs": [
        {
          "internalType": "string",
          "name": "email",
          "type": "string"
        },
        {
          "internalType": "uint8",
          "name": "userType",
          "type": "uint8"
        },
        {
          "internalType": "string",
          "name": "metadataHash",
          "type": "string"
        }
      ],
      "name": "registerUser",
      "outputs": [],
      "stateMutability": "nonpayable",
      "type": "function"
    },
    {
      "inputs": [],
      "name": "totalJobs",
      "outputs": [
        {
          "internalType": "uint256",
          "name": "",
          "type": "uint256"
        }
      ],
      "stateMutability": "view",
      "type": "function"
    },
    {
      "inputs": [],
      "name": "totalMatches",
      "outputs": [
        {
          "internalType": "uint256",
          "name": "",
          "type": "uint256"
        }
      ],
      "stateMutability": "view",
      "type": "function"
    },
    {
      "inputs": [],
      "name": "totalUsers",
      "outputs": [
        {
          "internalType": "uint256",
          "name": "",
          "type": "uint256"
        }
      ],
      "stateMutability": "view",
      "type": "function"
    },
    {
      "inputs": [
        {
          "internalType": "string",
          "name": "newMetadataHash",
          "type": "string"
        }
      ],
      "name": "updateUserMetadata",
      "outputs": [],
      "stateMutability": "nonpayable",
      "type": "function"
    },
    {
      "inputs": [
        {
          "internalType": "address",
          "name": "",
          "type": "address"
        }
      ],
      "name": "userProfiles",
      "outputs": [
        {
          "internalType": "string",
          "name": "email",
          "type": "string"
        },
        {
          "internalType": "uint8",
          "name": "userType",
          "type": "uint8"
        },
        {
          "internalType": "bool",
          "name": "isActive",
          "type": "bool"
        },
        {
          "internalType": "uint256",
          "name": "createdAt",
          "type": "uint256"
        },
        {
          "internalType": "string",
          "name": "metadataHash",
          "type": "string"
        }
      ],
      "stateMutability": "view",
      "type": "function"
    }
  ],
  "bytecode": "0x608060405234801561001057600080fd5b50600080546001600160a01b031916331781556040805182815260208101839052908101919091527f8f8ef30e9b0f21e3357aedef2bd0475931edee61d9ad4eedbd92ec2207b41c5e9060600160405180910390a16119e1806100746000396000f3fe608060405234801561001057600080fd5b50600436106101165760003560e01c806355ea2000116100a25780639636994c116100715780639636994c1461024d578063987ee15614610273578063a2b5e32014610293578063bff1f9e1146102a6578063ffa1ad74146102af57600080fd5b806355ea2000146101f157806364ef21de146101f95780637cc1f8671461020c5780638da5cb5b1461022257600080fd5b8063285b46db116100e9578063285b46db146101945780632a5b1451146101a9578063332d56d7146101b257806349c17ff5146101d657806351858e27146101e957600080fd5b80630a0a2e701461011b578063136d8883146101445780631ace87b314610168578063229960791461017f575b600080fd5b61012e6101293660046112aa565b6102d3565b60405161013b9190611313565b60405180910390f35b6003546004546005546040805193845260208401929092529082015260600161013b565b61017160045481565b60405190815260200161013b565b610187610535565b60405161013b91906113b3565b6101a76101a23660046113cd565b610551565b005b61017160055481565b6101c56101c03660046113ef565b61072e565b60405161013b959493929190611418565b6101a76101e4366004611503565b610875565b6101a76108cd565b6101a7610961565b610171610207366004611556565b6109b7565b610214610ca1565b60405161013b9291906115ef565b600054610235906001600160a01b031681565b6040516001600160a01b03909116815260200161013b565b61026061025b3660046112aa565b610ce3565b60405161013b979695949392919061161d565b6102866102813660046113ef565b610ecb565b60405161013b919061168d565b6101a76102a13660046116e9565b61107a565b61017160035481565b610187604051806040016040528060058152602001640312e302e360dc1b81525081565b6103216040518060e0016040528060006001600160a01b0316815260200160608152602001606081526020016000151581526020016000815260200160608152602001600060ff1681525090565b600082815260026020908152604091829020825160e0810190935280546001600160a01b03168352600181018054919284019161035d9061175d565b80601f01602080910402602001604051908101604052809291908181526020018280546103899061175d565b80156103d65780601f106103ab576101008083540402835291602001916103d6565b820191906000526020600020905b8154815290600101906020018083116103b957829003601f168201915b505050505081526020016002820180546103ef9061175d565b80601f016020809104026020016040519081016040528092919081815260200182805461041b9061175d565b80156104685780601f1061043d57610100808354040283529160200191610468565b820191906000526020600020905b81548152906001019060200180831161044b57829003601f168201915b5050509183525050600382015460ff16151560208201526004820154604082015260058201805460609092019161049e9061175d565b80601f01602080910402602001604051908101604052809291908181526020018280546104ca9061175d565b80156105175780601f106104ec57610100808354040283529160200191610517565b820191906000526020600020905b8154815290600101906020018083116104fa57829003601f168201915b50505091835250506006919091015460ff1660209091015292915050565b6040518060600160405280602381526020016119696023913981565b3360009081526001602081905260409091200154610100900460ff166105925760405162461bcd60e51b815260040161058990611797565b60405180910390fd5b33600090815260016020819052604090912081015460ff16146105f75760405162461bcd60e51b815260206004820152601a60248201527f4f6e6c79206a6f62207365656b6572732063616e206170706c790000000000006044820152606401610589565b60008281526002602052604090206003015460ff166106585760405162461bcd60e51b815260206004820152601960248201527f4a6f62206e6f7420666f756e64206f7220696e616374697665000000000000006044820152606401610589565b60648111156106a95760405162461bcd60e51b815260206004820152601d60248201527f4d617463682073636f72652063616e6e6f7420657863656564203130300000006044820152606401610589565b600580549060006106b9836117ce565b9091555050604051818152339083907f881141b14ef0d8e335467ece01b5dd51639bb3b2948b268347319569364968059060200160405180910390a3600354600454600554604080519384526020840192909252828201525160008051602061198c8339815191529181900360600190a15050565b6001602052600090815260409020805481906107499061175d565b80601f01602080910402602001604051908101604052809291908181526020018280546107759061175d565b80156107c25780601f10610797576101008083540402835291602001916107c2565b820191906000526020600020905b8154815290600101906020018083116107a557829003601f168201915b5050505060018301546002840154600385018054949560ff8085169661010090950416945091926107f29061175d565b80601f016020809104026020016040519081016040528092919081815260200182805461081e9061175d565b801561086b5780601f106108405761010080835404028352916020019161086b565b820191906000526020600020905b81548152906001019060200180831161084e57829003601f168201915b5050505050905085565b3360009081526001602081905260409091200154610100900460ff166108ad5760405162461bcd60e51b815260040161058990611797565b3360009081526001602052604090206003016108c98282611844565b5050565b6000546001600160a01b031633146109315760405162461bcd60e51b815260206004820152602160248201527f4f6e6c79206f776e65722063616e2063616c6c20746869732066756e6374696f6044820152603760f91b6064820152608401610589565b6040805160008082526020820181905281830152905160008051602061198c8339815191529181900360600190a1565b3360009081526001602081905260409091200154610100900460ff166109995760405162461bcd60e51b815260040161058990611797565b33600090815260016020819052604090912001805461ff0019169055565b33600090815260016020819052604082200154610100900460ff166109ee5760405162461bcd60e51b815260040161058990611797565b336000908152600160208190526040909120015460ff16600214610a4c5760405162461bcd60e51b81526020600482015260156024820152744f6e6c792048522063616e20706f7374206a6f627360581b6044820152606401610589565b6000855111610a9d5760405162461bcd60e51b815260206004820152601960248201527f4a6f62207469746c652063616e6e6f7420626520656d707479000000000000006044820152606401610589565b60018260ff1610158015610ab5575060038260ff1611155b610b015760405162461bcd60e51b815260206004820152601b60248201527f496e76616c6964206163636573736962696c697479206c6576656c00000000006044820152606401610589565b6000338642604051602001610b1893929190611904565b60408051808303601f19018152828252805160209182012060e0840183523384528184018a81528484018a905260016060860181905242608087015260a086018a905260ff891660c08701526000838152600290945293909220845181546001600160a01b0319166001600160a01b0390911617815591519094509091820190610ba29082611844565b5060408201516002820190610bb79082611844565b50606082015160038201805460ff19169115159190911790556080820151600482015560a08201516005820190610bee9082611844565b5060c091909101516006909101805460ff191660ff90921691909117905560048054906000610c1c836117ce565b9190505550336001600160a01b0316817fe21cd3e91a4968aea8844b1372989f258d4ab0ffce9ef488f5b03163ad7fdeaa88604051610c5b91906113b3565b60405180910390a3600354600454600554604080519384526020840192909252828201525160008051602061198c8339815191529181900360600190a195945050505050565b60608060405180606001604052806023815260200161196960239139604051806040016040528060058152602001640312e302e360dc1b815250915091509091565b600260205260009081526040902080546001820180546001600160a01b039092169291610d0f9061175d565b80601f0160208091040260200160405190810160405280929190818152602001828054610d3b9061175d565b8015610d885780601f10610d5d57610100808354040283529160200191610d88565b820191906000526020600020905b815481529060010190602001808311610d6b57829003601f168201915b505050505090806002018054610d9d9061175d565b80601f0160208091040260200160405190810160405280929190818152602001828054610dc99061175d565b8015610e165780601f10610deb57610100808354040283529160200191610e16565b820191906000526020600020905b815481529060010190602001808311610df957829003601f168201915b5050505060038301546004840154600585018054949560ff9093169491935090610e3f9061175d565b80601f0160208091040260200160405190810160405280929190818152602001828054610e6b9061175d565b8015610eb85780601f10610e8d57610100808354040283529160200191610eb8565b820191906000526020600020905b815481529060010190602001808311610e9b57829003601f168201915b5050506006909301549192505060ff1687565b610f026040518060a0016040528060608152602001600060ff16815260200160001515815260200160008152602001606081525090565b6001600160a01b03821660009081526001602052604090819020815160a08101909252805482908290610f349061175d565b80601f0160208091040260200160405190810160405280929190818152602001828054610f609061175d565b8015610fad5780601f10610f8257610100808354040283529160200191610fad565b820191906000526020600020905b815481529060010190602001808311610f9057829003601f168201915b5050509183525050600182015460ff8082166020840152610100909104161515604082015260028201546060820152600382018054608090920191610ff19061175d565b80601f016020809104026020016040519081016040528092919081815260200182805461101d9061175d565b801561106a5780601f1061103f5761010080835404028352916020019161106a565b820191906000526020600020905b81548152906001019060200180831161104d57829003601f168201915b5050505050815250509050919050565b8160ff166001148061108f57508160ff166002145b6110cf5760405162461bcd60e51b8152602060048201526011602482015270496e76616c69642075736572207479706560781b6044820152606401610589565b3360009081526001602081905260409091200154610100900460ff16156111385760405162461bcd60e51b815260206004820152601760248201527f5573657220616c726561647920726567697374657265640000000000000000006044820152606401610589565b60008351116111815760405162461bcd60e51b8152602060048201526015602482015274456d61696c2063616e6e6f7420626520656d70747960581b6044820152606401610589565b6040805160a08101825284815260ff8416602080830191909152600182840181905242606084015260808301859052336000908152915291909120815181906111ca9082611844565b506020820151600182018054604085015115156101000261ffff1990911660ff9093169290921791909117905560608201516002820155608082015160038201906112159082611844565b50506003805491506000611228836117ce565b9190505550336001600160a01b03167fc2e5d5da58bd71d1a2d14cdef02a4256d971b728088f8190d067ccfbae3bd73e8484604051611268929190611943565b60405180910390a2600354600454600554604080519384526020840192909252828201525160008051602061198c8339815191529181900360600190a1505050565b6000602082840312156112bc57600080fd5b5035919050565b60005b838110156112de5781810151838201526020016112c6565b50506000910152565b600081518084526112ff8160208601602086016112c3565b601f01601f19169290920160200192915050565b602080825282516001600160a01b03168282015282015160e060408301526000906113426101008401826112e7565b90506040840151601f198085840301606086015261136083836112e7565b9250606086015115156080860152608086015160a086015260a08601519150808584030160c08601525061139482826112e7565b91505060c08401516113ab60e085018260ff169052565b509392505050565b6020815260006113c660208301846112e7565b9392505050565b600080604083850312156113e057600080fd5b50508035926020909101359150565b60006020828403121561140157600080fd5b81356001600160a01b03811681146113c657600080fd5b60a08152600061142b60a08301886112e7565b60ff871660208401528515156040840152846060840152828103608084015261145481856112e7565b98975050505050505050565b634e487b7160e01b600052604160045260246000fd5b600082601f83011261148757600080fd5b813567ffffffffffffffff808211156114a2576114a2611460565b604051601f8301601f19908116603f011681019082821181831017156114ca576114ca611460565b816040528381528660208588010111156114e357600080fd5b836020870160208301376000602085830101528094505050505092915050565b60006020828403121561151557600080fd5b813567ffffffffffffffff81111561152c57600080fd5b61153884828501611476565b949350505050565b803560ff8116811461155157600080fd5b919050565b6000806000806080858703121561156c57600080fd5b843567ffffffffffffffff8082111561158457600080fd5b61159088838901611476565b955060208701359150808211156115a657600080fd5b6115b288838901611476565b945060408701359150808211156115c857600080fd5b506115d587828801611476565b9250506115e460608601611540565b905092959194509250565b60408152600061160260408301856112e7565b828103602084015261161481856112e7565b95945050505050565b6001600160a01b038816815260e060208201819052600090611641908301896112e7565b828103604084015261165381896112e7565b9050861515606084015285608084015282810360a084015261167581866112e7565b91505060ff831660c083015298975050505050505050565b602081526000825160a060208401526116a960c08401826112e7565b905060ff6020850151166040840152604084015115156060840152606084015160808401526080840151601f198483030160a085015261161482826112e7565b6000806000606084860312156116fe57600080fd5b833567ffffffffffffffff8082111561171657600080fd5b61172287838801611476565b945061173060208701611540565b9350604086013591508082111561174657600080fd5b5061175386828701611476565b9150509250925092565b600181811c9082168061177157607f821691505b60208210810361179157634e487b7160e01b600052602260045260246000fd5b50919050565b6020808252601f908201527f55736572206e6f742072656769737465726564206f7220696e61637469766500604082015260600190565b6000600182016117ee57634e487b7160e01b600052601160045260246000fd5b5060010190565b601f82111561183f57600081815260208120601f850160051c8101602086101561181c5750805b601f850160051c820191505b8181101561183b57828155600101611828565b5050505b505050565b815167ffffffffffffffff81111561185e5761185e611460565b6118728161186c845461175d565b846117f5565b602080601f8311600181146118a7576000841561188f5750858301515b600019600386901b1c1916600185901b17855561183b565b600085815260208120601f198616915b828110156118d6578886015182559484019460019091019084016118b7565b50858210156118f45787850151600019600388901b60f8161c191681555b5050505050600190811b01905550565b6bffffffffffffffffffffffff198460601b1681526000835161192e8160148501602088016112c3565b60149201918201929092526034019392505050565b60408152600061195660408301856112e7565b905060ff83166020830152939250505056fe4144412e4149202d2041636365737369626c652043617265657220506c6174666f726d8f8ef30e9b0f21e3357aedef2bd0475931edee61d9ad4eedbd92ec2207b41c5ea2646970667358221220a34fa81fe9600c95d83c214e8bf7f79c5edda1139d2dc94b350c9c8aa8f8184664736f6c63430008130033",
  "linkReferences": {},
  "deployedLinkReferences": {}
}